{
  "contractName": "NFTAuction",
  "abi": [
    {
      "inputs": [],
      "stateMutability": "nonpayable",
      "type": "constructor"
    },
    {
      "inputs": [],
      "name": "ReentrancyGuardReentrantCall",
      "type": "error"
    },
    {
      "anonymous": false,
      "inputs": [
        {
          "indexed": true,
          "internalType": "address",
          "name": "owner",
          "type": "address"
        },
        {
          "indexed": true,
          "internalType": "address",
          "name": "approved",
          "type": "address"
        },
        {
          "indexed": true,
          "internalType": "uint256",
          "name": "tokenId",
          "type": "uint256"
        }
      ],
      "name": "Approval",
      "type": "event"
    },
    {
      "anonymous": false,
      "inputs": [
        {
          "indexed": true,
          "internalType": "address",
          "name": "owner",
          "type": "address"
        },
        {
          "indexed": true,
          "internalType": "address",
          "name": "operator",
          "type": "address"
        },
        {
          "indexed": false,
          "internalType": "bool",
          "name": "approved",
          "type": "bool"
        }
      ],
      "name": "ApprovalForAll",
      "type": "event"
    },
    {
      "anonymous": false,
      "inputs": [
        {
          "indexed": true,
          "internalType": "address",
          "name": "Bidder",
          "type": "address"
        },
        {
          "indexed": false,
          "internalType": "uint256",
          "name": "bid",
          "type": "uint256"
        },
        {
          "indexed": true,
          "internalType": "address",
          "name": "highestBidder",
          "type": "address"
        },
        {
          "indexed": false,
          "internalType": "uint256",
          "name": "highestBid",
          "type": "uint256"
        },
        {
          "indexed": false,
          "internalType": "uint256",
          "name": "highestBindingBid",
          "type": "uint256"
        }
      ],
      "name": "LogBid",
      "type": "event"
    },
    {
      "anonymous": false,
      "inputs": [],
      "name": "LogCanceled",
      "type": "event"
    },
    {
      "anonymous": false,
      "inputs": [
        {
          "indexed": false,
          "internalType": "address",
          "name": "highestBidder",
          "type": "address"
        },
        {
          "indexed": false,
          "internalType": "uint256",
          "name": "highestBid",
          "type": "uint256"
        }
      ],
      "name": "LogEndAuction",
      "type": "event"
    },
    {
      "anonymous": false,
      "inputs": [
        {
          "indexed": true,
          "internalType": "address",
          "name": "withdrawalAccount",
          "type": "address"
        },
        {
          "indexed": false,
          "internalType": "uint256",
          "name": "amount",
          "type": "uint256"
        }
      ],
      "name": "LogWithdrawal",
      "type": "event"
    },
    {
      "anonymous": false,
      "inputs": [
        {
          "indexed": true,
          "internalType": "address",
          "name": "from",
          "type": "address"
        },
        {
          "indexed": true,
          "internalType": "address",
          "name": "to",
          "type": "address"
        },
        {
          "indexed": true,
          "internalType": "uint256",
          "name": "tokenId",
          "type": "uint256"
        }
      ],
      "name": "Transfer",
      "type": "event"
    },
    {
      "inputs": [],
      "name": "_artItemIds",
      "outputs": [
        {
          "internalType": "uint256",
          "name": "",
          "type": "uint256"
        }
      ],
      "stateMutability": "view",
      "type": "function",
      "constant": true
    },
    {
      "inputs": [],
      "name": "_tokenIds",
      "outputs": [
        {
          "internalType": "uint256",
          "name": "",
          "type": "uint256"
        }
      ],
      "stateMutability": "view",
      "type": "function",
      "constant": true
    },
    {
      "inputs": [
        {
          "internalType": "address",
          "name": "to",
          "type": "address"
        },
        {
          "internalType": "uint256",
          "name": "tokenId",
          "type": "uint256"
        }
      ],
      "name": "approve",
      "outputs": [],
      "stateMutability": "nonpayable",
      "type": "function"
    },
    {
      "inputs": [
        {
          "internalType": "address",
          "name": "owner",
          "type": "address"
        }
      ],
      "name": "balanceOf",
      "outputs": [
        {
          "internalType": "uint256",
          "name": "",
          "type": "uint256"
        }
      ],
      "stateMutability": "view",
      "type": "function",
      "constant": true
    },
    {
      "inputs": [
        {
          "internalType": "uint256",
          "name": "",
          "type": "uint256"
        }
      ],
      "name": "bid",
      "outputs": [
        {
          "internalType": "uint256",
          "name": "highestBindingBid",
          "type": "uint256"
        },
        {
          "internalType": "address payable",
          "name": "highestBidder",
          "type": "address"
        }
      ],
      "stateMutability": "view",
      "type": "function",
      "constant": true
    },
    {
      "inputs": [],
      "name": "canceled",
      "outputs": [
        {
          "internalType": "bool",
          "name": "",
          "type": "bool"
        }
      ],
      "stateMutability": "view",
      "type": "function",
      "constant": true
    },
    {
      "inputs": [
        {
          "internalType": "uint256",
          "name": "",
          "type": "uint256"
        },
        {
          "internalType": "address",
          "name": "",
          "type": "address"
        }
      ],
      "name": "fundsByBidder",
      "outputs": [
        {
          "internalType": "uint256",
          "name": "",
          "type": "uint256"
        }
      ],
      "stateMutability": "view",
      "type": "function",
      "constant": true
    },
    {
      "inputs": [
        {
          "internalType": "uint256",
          "name": "tokenId",
          "type": "uint256"
        }
      ],
      "name": "getApproved",
      "outputs": [
        {
          "internalType": "address",
          "name": "",
          "type": "address"
        }
      ],
      "stateMutability": "view",
      "type": "function",
      "constant": true
    },
    {
      "inputs": [
        {
          "internalType": "address",
          "name": "owner",
          "type": "address"
        },
        {
          "internalType": "address",
          "name": "operator",
          "type": "address"
        }
      ],
      "name": "isApprovedForAll",
      "outputs": [
        {
          "internalType": "bool",
          "name": "",
          "type": "bool"
        }
      ],
      "stateMutability": "view",
      "type": "function",
      "constant": true
    },
    {
      "inputs": [],
      "name": "name",
      "outputs": [
        {
          "internalType": "string",
          "name": "",
          "type": "string"
        }
      ],
      "stateMutability": "view",
      "type": "function",
      "constant": true
    },
    {
      "inputs": [
        {
          "internalType": "uint256",
          "name": "tokenId",
          "type": "uint256"
        }
      ],
      "name": "ownerOf",
      "outputs": [
        {
          "internalType": "address",
          "name": "",
          "type": "address"
        }
      ],
      "stateMutability": "view",
      "type": "function",
      "constant": true
    },
    {
      "inputs": [
        {
          "internalType": "address",
          "name": "from",
          "type": "address"
        },
        {
          "internalType": "address",
          "name": "to",
          "type": "address"
        },
        {
          "internalType": "uint256",
          "name": "tokenId",
          "type": "uint256"
        }
      ],
      "name": "safeTransferFrom",
      "outputs": [],
      "stateMutability": "nonpayable",
      "type": "function"
    },
    {
      "inputs": [
        {
          "internalType": "address",
          "name": "from",
          "type": "address"
        },
        {
          "internalType": "address",
          "name": "to",
          "type": "address"
        },
        {
          "internalType": "uint256",
          "name": "tokenId",
          "type": "uint256"
        },
        {
          "internalType": "bytes",
          "name": "_data",
          "type": "bytes"
        }
      ],
      "name": "safeTransferFrom",
      "outputs": [],
      "stateMutability": "nonpayable",
      "type": "function"
    },
    {
      "inputs": [
        {
          "internalType": "address",
          "name": "operator",
          "type": "address"
        },
        {
          "internalType": "bool",
          "name": "approved",
          "type": "bool"
        }
      ],
      "name": "setApprovalForAll",
      "outputs": [],
      "stateMutability": "nonpayable",
      "type": "function"
    },
    {
      "inputs": [
        {
          "internalType": "bytes4",
          "name": "interfaceId",
          "type": "bytes4"
        }
      ],
      "name": "supportsInterface",
      "outputs": [
        {
          "internalType": "bool",
          "name": "",
          "type": "bool"
        }
      ],
      "stateMutability": "view",
      "type": "function",
      "constant": true
    },
    {
      "inputs": [],
      "name": "symbol",
      "outputs": [
        {
          "internalType": "string",
          "name": "",
          "type": "string"
        }
      ],
      "stateMutability": "view",
      "type": "function",
      "constant": true
    },
    {
      "inputs": [
        {
          "internalType": "uint256",
          "name": "tokenId",
          "type": "uint256"
        }
      ],
      "name": "tokenURI",
      "outputs": [
        {
          "internalType": "string",
          "name": "",
          "type": "string"
        }
      ],
      "stateMutability": "view",
      "type": "function",
      "constant": true
    },
    {
      "inputs": [
        {
          "internalType": "address",
          "name": "from",
          "type": "address"
        },
        {
          "internalType": "address",
          "name": "to",
          "type": "address"
        },
        {
          "internalType": "uint256",
          "name": "tokenId",
          "type": "uint256"
        }
      ],
      "name": "transferFrom",
      "outputs": [],
      "stateMutability": "nonpayable",
      "type": "function"
    },
    {
      "inputs": [
        {
          "internalType": "uint256",
          "name": "price",
          "type": "uint256"
        },
        {
          "internalType": "string",
          "name": "tokenURI",
          "type": "string"
        },
        {
          "internalType": "uint256",
          "name": "_bidincrement",
          "type": "uint256"
        },
        {
          "internalType": "uint256",
          "name": "startDate",
          "type": "uint256"
        },
        {
          "internalType": "uint256",
          "name": "endDate",
          "type": "uint256"
        }
      ],
      "name": "addArtItem",
      "outputs": [],
      "stateMutability": "nonpayable",
      "type": "function"
    },
    {
      "inputs": [
        {
          "internalType": "uint256",
          "name": "id",
          "type": "uint256"
        }
      ],
      "name": "getArtItem",
      "outputs": [
        {
          "internalType": "uint256",
          "name": "",
          "type": "uint256"
        },
        {
          "internalType": "uint256",
          "name": "",
          "type": "uint256"
        },
        {
          "internalType": "string",
          "name": "",
          "type": "string"
        },
        {
          "internalType": "uint256",
          "name": "",
          "type": "uint256"
        },
        {
          "internalType": "uint256",
          "name": "",
          "type": "uint256"
        },
        {
          "internalType": "uint256",
          "name": "",
          "type": "uint256"
        }
      ],
      "stateMutability": "view",
      "type": "function",
      "constant": true
    },
    {
      "inputs": [
        {
          "internalType": "uint256",
          "name": "id",
          "type": "uint256"
        },
        {
          "internalType": "uint256",
          "name": "newEndDate",
          "type": "uint256"
        }
      ],
      "name": "extendEndDate",
      "outputs": [],
      "stateMutability": "nonpayable",
      "type": "function"
    },
    {
      "inputs": [
        {
          "internalType": "uint256",
          "name": "id",
          "type": "uint256"
        }
      ],
      "name": "cancelAuction",
      "outputs": [
        {
          "internalType": "bool",
          "name": "success",
          "type": "bool"
        }
      ],
      "stateMutability": "payable",
      "type": "function",
      "payable": true
    },
    {
      "inputs": [
        {
          "internalType": "uint256",
          "name": "id",
          "type": "uint256"
        }
      ],
      "name": "placeBid",
      "outputs": [],
      "stateMutability": "payable",
      "type": "function",
      "payable": true
    },
    {
      "inputs": [
        {
          "internalType": "uint256",
          "name": "id",
          "type": "uint256"
        }
      ],
      "name": "withdraw",
      "outputs": [],
      "stateMutability": "payable",
      "type": "function",
      "payable": true
    },
    {
      "inputs": [
        {
          "internalType": "uint256",
          "name": "id",
          "type": "uint256"
        }
      ],
      "name": "endAuction",
      "outputs": [],
      "stateMutability": "nonpayable",
      "type": "function"
    }
  ],
  "bytecode": "0x6080604052600e805461ffff19166101001790553480156200001f575f80fd5b506040518060400160405280600a815260200169105d58dd1a5bdb90549560b21b8152506040518060400160405280600381526020016210549560ea1b815250815f90816200006f91906200012c565b5060016200007e82826200012c565b5050600160075550620001f4565b634e487b7160e01b5f52604160045260245ffd5b600181811c90821680620000b557607f821691505b602082108103620000d457634e487b7160e01b5f52602260045260245ffd5b50919050565b601f82111562000127575f81815260208120601f850160051c81016020861015620001025750805b601f850160051c820191505b8181101562000123578281556001016200010e565b5050505b505050565b81516001600160401b038111156200014857620001486200008c565b6200016081620001598454620000a0565b84620000da565b602080601f83116001811462000196575f84156200017e5750858301515b5f19600386901b1c1916600185901b17855562000123565b5f85815260208120601f198616915b82811015620001c657888601518255948401946001909101908401620001a5565b5085821015620001e457878501515f19600388901b60f8161c191681555b5050505050600190811b01905550565b6129d080620002025f395ff3fe608060405260043610610161575f3560e01c80636352211e116100cd578063a22cb46511610087578063b9a2de3a11610062578063b9a2de3a14610448578063c87b56dd14610467578063e985e9c514610486578063ef3d416b146104a5575f80fd5b8063a22cb465146103f5578063aa46a40014610414578063b88d4fde14610429575f80fd5b80636352211e1461035e57806370a082311461037d57806395d89b411461039c57806396ae9453146103b057806396b5a755146103cf5780639979ef45146103e2575f80fd5b806323b872dd1161011e57806323b872dd1461026657806326fe3065146102855780632e1a7d4d146102bb5780633f9942ff146102ce57806342842e0e146102e7578063454a2ab314610306575f80fd5b806301ffc9a71461016557806306fdde0314610199578063081812fc146101ba578063095ea7b3146101f157806314797de71461021257806321f004eb14610235575b5f80fd5b348015610170575f80fd5b5061018461017f3660046122f2565b6104c4565b60405190151581526020015b60405180910390f35b3480156101a4575f80fd5b506101ad610515565b604051610190919061235a565b3480156101c5575f80fd5b506101d96101d436600461236c565b6105a4565b6040516001600160a01b039091168152602001610190565b3480156101fc575f80fd5b5061021061020b36600461239e565b61062f565b005b34801561021d575f80fd5b50610227600a5481565b604051908152602001610190565b348015610240575f80fd5b5061025461024f36600461236c565b610743565b604051610190969594939291906123c6565b348015610271575f80fd5b50610210610280366004612402565b610874565b348015610290575f80fd5b5061022761029f36600461243b565b600c60209081525f928352604080842090915290825290205481565b6102106102c936600461236c565b6108a5565b3480156102d9575f80fd5b50600b546101849060ff1681565b3480156102f2575f80fd5b50610210610301366004612402565b610aa8565b348015610311575f80fd5b5061034161032036600461236c565b600d6020525f9081526040902080546001909101546001600160a01b031682565b604080519283526001600160a01b03909116602083015201610190565b348015610369575f80fd5b506101d961037836600461236c565b610ac2565b348015610388575f80fd5b50610227610397366004612465565b610b38565b3480156103a7575f80fd5b506101ad610bbd565b3480156103bb575f80fd5b506102106103ca366004612505565b610bcc565b6101846103dd36600461236c565b610d5b565b6102106103f036600461236c565b61101a565b348015610400575f80fd5b5061021061040f366004612575565b6114df565b34801561041f575f80fd5b5061022760095481565b348015610434575f80fd5b506102106104433660046125ae565b6115a2565b348015610453575f80fd5b5061021061046236600461236c565b6115d4565b348015610472575f80fd5b506101ad61048136600461236c565b611829565b348015610491575f80fd5b506101846104a0366004612625565b611999565b3480156104b0575f80fd5b506102106104bf36600461264d565b6119c6565b5f6001600160e01b031982166380ac58cd60e01b14806104f457506001600160e01b03198216635b5e139f60e01b145b8061050f57506301ffc9a760e01b6001600160e01b03198316145b92915050565b60605f80546105239061266d565b80601f016020809104026020016040519081016040528092919081815260200182805461054f9061266d565b801561059a5780601f106105715761010080835404028352916020019161059a565b820191905f5260205f20905b81548152906001019060200180831161057d57829003601f168201915b5050505050905090565b5f6105ae82611ab5565b6106145760405162461bcd60e51b815260206004820152602c60248201527f4552433732313a20617070726f76656420717565727920666f72206e6f6e657860448201526b34b9ba32b73a103a37b5b2b760a11b60648201526084015b60405180910390fd5b505f908152600460205260409020546001600160a01b031690565b5f61063982610ac2565b9050806001600160a01b0316836001600160a01b0316036106a65760405162461bcd60e51b815260206004820152602160248201527f4552433732313a20617070726f76616c20746f2063757272656e74206f776e656044820152603960f91b606482015260840161060b565b336001600160a01b03821614806106c257506106c28133611999565b6107345760405162461bcd60e51b815260206004820152603860248201527f4552433732313a20617070726f76652063616c6c6572206973206e6f74206f7760448201527f6e6572206e6f7220617070726f76656420666f7220616c6c0000000000000000606482015260840161060b565b61073e8383611ad1565b505050565b5f818152600860205260408120600301548190606090829081908190879060ff1661079c5760405162461bcd60e51b8152602060048201526009602482015268139bdd08119bdd5b9960ba1b604482015260640161060b565b5f888152600860209081526040808320600d90925290912060018201548154600584015460068501546002860180548f9594919391929084906107de9061266d565b80601f016020809104026020016040519081016040528092919081815260200182805461080a9061266d565b80156108555780601f1061082c57610100808354040283529160200191610855565b820191905f5260205f20905b81548152906001019060200180831161083857829003601f168201915b5050505050935098509850985098509850985050505091939550919395565b61087e3382611b3e565b61089a5760405162461bcd60e51b815260040161060b9061269f565b61073e838383611bfe565b5f8181526008602052604090205481906001600160a01b031633036108ff5760405162461bcd60e51b815260206004820152601060248201526f13dddb995c8818d85b9b9bdd08189a5960821b604482015260640161060b565b610907611d9a565b600b5460ff1615156001146109555760405162461bcd60e51b8152602060048201526014602482015273105d58dd1a5bdb881b9bdd0818d85b98d95b195960621b604482015260640161060b565b600e5460ff1615156001146109a25760405162461bcd60e51b8152602060048201526013602482015272105d58dd1a5bdb881b9bdd081cdd185c9d1959606a1b604482015260640161060b565b5f828152600c602090815260408083203380855290835281842054868552600d909352922060018101546001600160a01b031683036109ea5780546109e79083612704565b91505b5f858152600c602090815260408083206001600160a01b038716845290915281208054849290610a1b908490612704565b90915550506040516001600160a01b0384169083156108fc029084905f818181858888f19350505050158015610a53573d5f803e3d5ffd5b50826001600160a01b03167fb4214c8c54fc7442f36d3682f59aebaf09358a4431835b30efb29d52cf9e1e9183604051610a8f91815260200190565b60405180910390a2505050610aa46001600755565b5050565b61073e83838360405180602001604052805f8152506115a2565b5f818152600260205260408120546001600160a01b03168061050f5760405162461bcd60e51b815260206004820152602960248201527f4552433732313a206f776e657220717565727920666f72206e6f6e657869737460448201526832b73a103a37b5b2b760b91b606482015260840161060b565b5f6001600160a01b038216610ba25760405162461bcd60e51b815260206004820152602a60248201527f4552433732313a2062616c616e636520717565727920666f7220746865207a65604482015269726f206164647265737360b01b606482015260840161060b565b506001600160a01b03165f9081526003602052604090205490565b6060600180546105239061266d565b808210610c265760405162461bcd60e51b815260206004820152602260248201527f53746172742064617465206d757374206265206265666f726520656e64206461604482015261746560f01b606482015260840161060b565b428111610c755760405162461bcd60e51b815260206004820152601e60248201527f456e642064617465206d75737420626520696e20746865206675747572650000604482015260640161060b565b600a8054905f610c8483612717565b90915550506040805160e08101825233815260208082018881528284018881526001606085018190526080850189905260a0850188905260c08501879052600a545f908152600890945294909220835181546001600160a01b0319166001600160a01b03909116178155905193810193909355519091906002820190610d0a908261277c565b50606082015160038201805491151560ff199092169190911790556080820151600482015560a0820151600582015560c0909101516006909101555050600e805461ff001916610100179055505050565b5f8181526008602052604081205482906001600160a01b03163314610dbd5760405162461bcd60e51b81526020600482015260186024820152774f6e6c79206f776e65722063616e2063616c6c207468697360401b604482015260640161060b565b600b5460ff1615610de05760405162461bcd60e51b815260040161060b90612838565b600b805460ff19166001908117909155600e5460ff1615159003610fe7575f838152600860209081526040808320815160e08101835281546001600160a01b031681526001820154938101939093526002810180549192840191610e439061266d565b80601f0160208091040260200160405190810160405280929190818152602001828054610e6f9061266d565b8015610eba5780601f10610e9157610100808354040283529160200191610eba565b820191905f5260205f20905b815481529060010190602001808311610e9d57829003601f168201915b5050509183525050600382015460ff1615156020808301919091526004830154604080840191909152600584015460608401526006909301546080909201919091525f878152600d90915290812060098054939450909291610f1b83612717565b9190505550610f2c33600954611dc4565b610f3c6009548360400151611ddd565b80545f03610f7d5760405162461bcd60e51b815260206004820152600e60248201526d139bc8189a591cc81c1b1858d95960921b604482015260640161060b565b80545f868152600c6020908152604080832060018601546001600160a01b0316845290915281208054909190610fb4908490612704565b90915550508054604051339180156108fc02915f818181858888f19350505050158015610fe3573d5f803e3d5ffd5b5050505b6040517f462b6ca7f632601af1295aeb320851f50e8e630a309173f23535845ea4bfb3b9905f90a1600191505b50919050565b600b5460ff161561103d5760405162461bcd60e51b815260040161060b90612838565b5f8181526008602052604090205481906001600160a01b031633036110975760405162461bcd60e51b815260206004820152601060248201526f13dddb995c8818d85b9b9bdd08189a5960821b604482015260640161060b565b5f8281526008602052604090206001015482903410156110ed5760405162461bcd60e51b81526020600482015260116024820152704269642062656c6f77206d696e696d756d60781b604482015260640161060b565b5f83815260086020526040902060050154839042101561114f5760405162461bcd60e51b815260206004820152601b60248201527f41756374696f6e20686173206e6f742073746172746564207965740000000000604482015260640161060b565b5f818152600860205260409020600601544211156111af5760405162461bcd60e51b815260206004820152601960248201527f41756374696f6e2068617320616c726561647920656e64656400000000000000604482015260640161060b565b6111b7611d9a565b5f34116112065760405162461bcd60e51b815260206004820181905260248201527f4269642076616c7565206d7573742062652067726561746572207468616e2030604482015260640161060b565b5f848152600d60209081526040808320600e805460ff1916600190811790915560088452828520835160e08101855281546001600160a01b03168152918101549482019490945260028401805492959491939192918401916112679061266d565b80601f01602080910402602001604051908101604052809291908181526020018280546112939061266d565b80156112de5780601f106112b5576101008083540402835291602001916112de565b820191905f5260205f20905b8154815290600101906020018083116112c157829003601f168201915b5050509183525050600382015460ff1615156020808301919091526004830154604080840191909152600584015460608401526006909301546080909201919091525f898152600c82528281203382529091529081205491925090611344903490612862565b835490915081116113a65760405162461bcd60e51b815260206004820152602660248201527f546865726520616c7265616479206973206120686967686572206f7220657175604482015265185b08189a5960d21b606482015260840161060b565b5f878152600c6020908152604080832060018701546001600160a01b031684529091528082205433835291208290558082116113fd576113f68360800151836113ef9190612862565b8290611e60565b8455611474565b60018401546001600160a01b031633146114745761142b8360800151826114249190612862565b8390611e60565b84556001840180546001600160a01b03191633179055600e5460ff610100909104161561147457826080015183602001516114669190612862565b8455600e805461ff00191690555b600184015484546040805185815260208101859052908101919091526001600160a01b039091169033907ff152f4ff5e488c55370a2d53925a55055228ebd8ec95bd0251bbb299e48786b09060600160405180910390a3505050506114d96001600755565b50505050565b336001600160a01b038316036115375760405162461bcd60e51b815260206004820152601960248201527f4552433732313a20617070726f766520746f2063616c6c657200000000000000604482015260640161060b565b335f8181526005602090815260408083206001600160a01b03871680855290835292819020805460ff191686151590811790915590519081529192917f17307eab39ab6107e8899845ad3d59bd9653f200f220920489ca2b5937696c31910160405180910390a35050565b6115ac3383611b3e565b6115c85760405162461bcd60e51b815260040161060b9061269f565b6114d984848484611e77565b5f81815260086020526040902060030154819060ff166116225760405162461bcd60e51b8152602060048201526009602482015268139bdd08119bdd5b9960ba1b604482015260640161060b565b5f828152600860209081526040808320600d909252909120600682015442116116855760405162461bcd60e51b8152602060048201526015602482015274105d58dd1a5bdb881b9bdd081e595d08195b991959605a1b604482015260640161060b565b600b5460ff16156116a85760405162461bcd60e51b815260040161060b90612838565b60018101546001600160a01b0316156114d95760098054905f6116ca83612717565b909155505060018101546009546116ea916001600160a01b031690611dc4565b6117806009548360020180546116ff9061266d565b80601f016020809104026020016040519081016040528092919081815260200182805461172b9061266d565b80156117765780601f1061174d57610100808354040283529160200191611776565b820191905f5260205f20905b81548152906001019060200180831161175957829003601f168201915b5050505050611ddd565b815481546040516001600160a01b039092169181156108fc0291905f818181858888f193505050501580156117b7573d5f803e3d5ffd5b505f848152600c602090815260408083206001850180546001600160a01b03908116865291845282852094909455925484548251919094168152918201929092527f33d172920faa677f7c7d83009946dbac28731521831899e43928638782038f2f910160405180910390a150505050565b606061183482611ab5565b61189a5760405162461bcd60e51b815260206004820152603160248201527f45524337323155524953746f726167653a2055524920717565727920666f72206044820152703737b732bc34b9ba32b73a103a37b5b2b760791b606482015260840161060b565b5f82815260066020526040812080546118b29061266d565b80601f01602080910402602001604051908101604052809291908181526020018280546118de9061266d565b80156119295780601f1061190057610100808354040283529160200191611929565b820191905f5260205f20905b81548152906001019060200180831161190c57829003601f168201915b505050505090505f61194560408051602081019091525f815290565b905080515f03611956575092915050565b815115611988578082604051602001611970929190612875565b60405160208183030381529060405292505050919050565b61199184611eaa565b949350505050565b6001600160a01b039182165f90815260056020908152604080832093909416825291909152205460ff1690565b5f8281526008602052604090205482906001600160a01b03163314611a285760405162461bcd60e51b81526020600482015260186024820152774f6e6c79206f776e65722063616e2063616c6c207468697360401b604482015260640161060b565b5f838152600860205260409020600601548211611aa05760405162461bcd60e51b815260206004820152603060248201527f4e657720656e642064617465206d757374206265206c61746572207468616e2060448201526f63757272656e7420656e64206461746560801b606482015260840161060b565b505f9182526008602052604090912060060155565b5f908152600260205260409020546001600160a01b0316151590565b5f81815260046020526040902080546001600160a01b0319166001600160a01b0384169081179091558190611b0582610ac2565b6001600160a01b03167f8c5be1e5ebec7d5bd14f71427d1e84f3dd0314c0f7b2291e5b200ac8c7c3b92560405160405180910390a45050565b5f611b4882611ab5565b611ba95760405162461bcd60e51b815260206004820152602c60248201527f4552433732313a206f70657261746f7220717565727920666f72206e6f6e657860448201526b34b9ba32b73a103a37b5b2b760a11b606482015260840161060b565b5f611bb383610ac2565b9050806001600160a01b0316846001600160a01b03161480611bee5750836001600160a01b0316611be3846105a4565b6001600160a01b0316145b8061199157506119918185611999565b826001600160a01b0316611c1182610ac2565b6001600160a01b031614611c795760405162461bcd60e51b815260206004820152602960248201527f4552433732313a207472616e73666572206f6620746f6b656e2074686174206960448201526839903737ba1037bbb760b91b606482015260840161060b565b6001600160a01b038216611cdb5760405162461bcd60e51b8152602060048201526024808201527f4552433732313a207472616e7366657220746f20746865207a65726f206164646044820152637265737360e01b606482015260840161060b565b611ce55f82611ad1565b6001600160a01b0383165f908152600360205260408120805460019290611d0d908490612704565b90915550506001600160a01b0382165f908152600360205260408120805460019290611d3a908490612862565b90915550505f8181526002602052604080822080546001600160a01b0319166001600160a01b0386811691821790925591518493918716917fddf252ad1be2c89b69c2b068fc378daa952ba7f163c4a11628f55a4df523b3ef91a4505050565b600260075403611dbd57604051633ee5aeb560e01b815260040160405180910390fd5b6002600755565b610aa4828260405180602001604052805f815250611f7d565b611de682611ab5565b611e495760405162461bcd60e51b815260206004820152602e60248201527f45524337323155524953746f726167653a2055524920736574206f66206e6f6e60448201526d32bc34b9ba32b73a103a37b5b2b760911b606482015260840161060b565b5f82815260066020526040902061073e828261277c565b5f818310611e6e5781611e70565b825b9392505050565b611e82848484611bfe565b611e8e84848484611faf565b6114d95760405162461bcd60e51b815260040161060b906128a3565b6060611eb582611ab5565b611f195760405162461bcd60e51b815260206004820152602f60248201527f4552433732314d657461646174613a2055524920717565727920666f72206e6f60448201526e3732bc34b9ba32b73a103a37b5b2b760891b606482015260840161060b565b5f611f2e60408051602081019091525f815290565b90505f815111611f4c5760405180602001604052805f815250611e70565b80611f56846120ac565b604051602001611f67929190612875565b6040516020818303038152906040529392505050565b611f8783836121a9565b611f935f848484611faf565b61073e5760405162461bcd60e51b815260040161060b906128a3565b5f6001600160a01b0384163b156120a157604051630a85bd0160e11b81526001600160a01b0385169063150b7a0290611ff29033908990889088906004016128f5565b6020604051808303815f875af192505050801561202c575060408051601f3d908101601f1916820190925261202991810190612931565b60015b612087573d808015612059576040519150601f19603f3d011682016040523d82523d5f602084013e61205e565b606091505b5080515f0361207f5760405162461bcd60e51b815260040161060b906128a3565b805181602001fd5b6001600160e01b031916630a85bd0160e11b149050611991565b506001949350505050565b6060815f036120d25750506040805180820190915260018152600360fc1b602082015290565b815f5b81156120fb57806120e581612717565b91506120f49050600a83612960565b91506120d5565b5f8167ffffffffffffffff8111156121155761211561247e565b6040519080825280601f01601f19166020018201604052801561213f576020820181803683370190505b5090505b841561199157612154600183612704565b9150612161600a86612973565b61216c906030612862565b60f81b81838151811061218157612181612986565b60200101906001600160f81b03191690815f1a9053506121a2600a86612960565b9450612143565b6001600160a01b0382166121ff5760405162461bcd60e51b815260206004820181905260248201527f4552433732313a206d696e7420746f20746865207a65726f2061646472657373604482015260640161060b565b61220881611ab5565b156122555760405162461bcd60e51b815260206004820152601c60248201527f4552433732313a20746f6b656e20616c7265616479206d696e74656400000000604482015260640161060b565b6001600160a01b0382165f90815260036020526040812080546001929061227d908490612862565b90915550505f8181526002602052604080822080546001600160a01b0319166001600160a01b03861690811790915590518392907fddf252ad1be2c89b69c2b068fc378daa952ba7f163c4a11628f55a4df523b3ef908290a45050565b6001600160e01b0319811681146122ef575f80fd5b50565b5f60208284031215612302575f80fd5b8135611e70816122da565b5f5b8381101561232757818101518382015260200161230f565b50505f910152565b5f815180845261234681602086016020860161230d565b601f01601f19169290920160200192915050565b602081525f611e70602083018461232f565b5f6020828403121561237c575f80fd5b5035919050565b80356001600160a01b0381168114612399575f80fd5b919050565b5f80604083850312156123af575f80fd5b6123b883612383565b946020939093013593505050565b86815285602082015260c060408201525f6123e460c083018761232f565b606083019590955250608081019290925260a0909101529392505050565b5f805f60608486031215612414575f80fd5b61241d84612383565b925061242b60208501612383565b9150604084013590509250925092565b5f806040838503121561244c575f80fd5b8235915061245c60208401612383565b90509250929050565b5f60208284031215612475575f80fd5b611e7082612383565b634e487b7160e01b5f52604160045260245ffd5b5f67ffffffffffffffff808411156124ac576124ac61247e565b604051601f8501601f19908116603f011681019082821181831017156124d4576124d461247e565b816040528093508581528686860111156124ec575f80fd5b858560208301375f602087830101525050509392505050565b5f805f805f60a08688031215612519575f80fd5b85359450602086013567ffffffffffffffff811115612536575f80fd5b8601601f81018813612546575f80fd5b61255588823560208401612492565b959895975050505060408401359360608101359360809091013592509050565b5f8060408385031215612586575f80fd5b61258f83612383565b9150602083013580151581146125a3575f80fd5b809150509250929050565b5f805f80608085870312156125c1575f80fd5b6125ca85612383565b93506125d860208601612383565b925060408501359150606085013567ffffffffffffffff8111156125fa575f80fd5b8501601f8101871361260a575f80fd5b61261987823560208401612492565b91505092959194509250565b5f8060408385031215612636575f80fd5b61263f83612383565b915061245c60208401612383565b5f806040838503121561265e575f80fd5b50508035926020909101359150565b600181811c9082168061268157607f821691505b60208210810361101457634e487b7160e01b5f52602260045260245ffd5b60208082526031908201527f4552433732313a207472616e736665722063616c6c6572206973206e6f74206f6040820152701ddb995c881b9bdc88185c1c1c9bdd9959607a1b606082015260800190565b634e487b7160e01b5f52601160045260245ffd5b8181038181111561050f5761050f6126f0565b5f60018201612728576127286126f0565b5060010190565b601f82111561073e575f81815260208120601f850160051c810160208610156127555750805b601f850160051c820191505b8181101561277457828155600101612761565b505050505050565b815167ffffffffffffffff8111156127965761279661247e565b6127aa816127a4845461266d565b8461272f565b602080601f8311600181146127dd575f84156127c65750858301515b5f19600386901b1c1916600185901b178555612774565b5f85815260208120601f198616915b8281101561280b578886015182559484019460019091019084016127ec565b508582101561282857878501515f19600388901b60f8161c191681555b5050505050600190811b01905550565b60208082526010908201526f105d58dd1a5bdb8818d85b98d95b195960821b604082015260600190565b8082018082111561050f5761050f6126f0565b5f835161288681846020880161230d565b83519083019061289a81836020880161230d565b01949350505050565b60208082526032908201527f4552433732313a207472616e7366657220746f206e6f6e20455243373231526560408201527131b2b4bb32b91034b6b83632b6b2b73a32b960711b606082015260800190565b6001600160a01b03858116825284166020820152604081018390526080606082018190525f906129279083018461232f565b9695505050505050565b5f60208284031215612941575f80fd5b8151611e70816122da565b634e487b7160e01b5f52601260045260245ffd5b5f8261296e5761296e61294c565b500490565b5f826129815761298161294c565b500690565b634e487b7160e01b5f52603260045260245ffdfea2646970667358221220d6bd0ca4738a00ee992027ab881a6da47cb6283b818dba361b11a2f159e1d36364736f6c63430008140033",
  "immutableReferences": {},
  "source": "\r\n\r\ninterface IERC165 {\r\n    /**\r\n     * @dev Returns true if this contract implements the interface defined by\r\n     * `interfaceId`. See the corresponding\r\n     * https://eips.ethereum.org/EIPS/eip-165#how-interfaces-are-identified[EIP section]\r\n     * to learn more about how these ids are created.\r\n     *\r\n     * This function call must use less than 30 000 gas.\r\n     */\r\n    function supportsInterface(bytes4 interfaceId) external view returns (bool);\r\n}\r\n\r\n/**\r\n * @dev Required interface of an ERC721 compliant contract.\r\n */\r\ninterface IERC721 is IERC165 {\r\n    /**\r\n     * @dev Emitted when `tokenId` token is transferred from `from` to `to`.\r\n     */\r\n    event Transfer(address indexed from, address indexed to, uint256 indexed tokenId);\r\n\r\n    /**\r\n     * @dev Emitted when `owner` enables `approved` to manage the `tokenId` token.\r\n     */\r\n    event Approval(address indexed owner, address indexed approved, uint256 indexed tokenId);\r\n\r\n    /**\r\n     * @dev Emitted when `owner` enables or disables (`approved`) `operator` to manage all of its assets.\r\n     */\r\n    event ApprovalForAll(address indexed owner, address indexed operator, bool approved);\r\n\r\n    /**\r\n     * @dev Returns the number of tokens in ``owner``'s account.\r\n     */\r\n    function balanceOf(address owner) external view returns (uint256 balance);\r\n\r\n    /**\r\n     * @dev Returns the owner of the `tokenId` token.\r\n     *\r\n     * Requirements:\r\n     *\r\n     * - `tokenId` must exist.\r\n     */\r\n    function ownerOf(uint256 tokenId) external view returns (address owner);\r\n\r\n    /**\r\n     * @dev Safely transfers `tokenId` token from `from` to `to`, checking first that contract recipients\r\n     * are aware of the ERC721 protocol to prevent tokens from being forever locked.\r\n     *\r\n     * Requirements:\r\n     *\r\n     * - `from` cannot be the zero address.\r\n     * - `to` cannot be the zero address.\r\n     * - `tokenId` token must exist and be owned by `from`.\r\n     * - If the caller is not `from`, it must be have been allowed to move this token by either {approve} or {setApprovalForAll}.\r\n     * - If `to` refers to a smart contract, it must implement {IERC721Receiver-onERC721Received}, which is called upon a safe transfer.\r\n     *\r\n     * Emits a {Transfer} event.\r\n     */\r\n    function safeTransferFrom(\r\n        address from,\r\n        address to,\r\n        uint256 tokenId\r\n    ) external;\r\n\r\n    /**\r\n     * @dev Transfers `tokenId` token from `from` to `to`.\r\n     *\r\n     * WARNING: Usage of this method is discouraged, use {safeTransferFrom} whenever possible.\r\n     *\r\n     * Requirements:\r\n     *\r\n     * - `from` cannot be the zero address.\r\n     * - `to` cannot be the zero address.\r\n     * - `tokenId` token must be owned by `from`.\r\n     * - If the caller is not `from`, it must be approved to move this token by either {approve} or {setApprovalForAll}.\r\n     *\r\n     * Emits a {Transfer} event.\r\n     */\r\n    function transferFrom(\r\n        address from,\r\n        address to,\r\n        uint256 tokenId\r\n    ) external;\r\n\r\n    /**\r\n     * @dev Gives permission to `to` to transfer `tokenId` token to another account.\r\n     * The approval is cleared when the token is transferred.\r\n     *\r\n     * Only a single account can be approved at a time, so approving the zero address clears previous approvals.\r\n     *\r\n     * Requirements:\r\n     *\r\n     * - The caller must own the token or be an approved operator.\r\n     * - `tokenId` must exist.\r\n     *\r\n     * Emits an {Approval} event.\r\n     */\r\n    function approve(address to, uint256 tokenId) external;\r\n\r\n    /**\r\n     * @dev Returns the account approved for `tokenId` token.\r\n     *\r\n     * Requirements:\r\n     *\r\n     * - `tokenId` must exist.\r\n     */\r\n    function getApproved(uint256 tokenId) external view returns (address operator);\r\n\r\n    /**\r\n     * @dev Approve or remove `operator` as an operator for the caller.\r\n     * Operators can call {transferFrom} or {safeTransferFrom} for any token owned by the caller.\r\n     *\r\n     * Requirements:\r\n     *\r\n     * - The `operator` cannot be the caller.\r\n     *\r\n     * Emits an {ApprovalForAll} event.\r\n     */\r\n    function setApprovalForAll(address operator, bool _approved) external;\r\n\r\n    /**\r\n     * @dev Returns if the `operator` is allowed to manage all of the assets of `owner`.\r\n     *\r\n     * See {setApprovalForAll}\r\n     */\r\n    function isApprovedForAll(address owner, address operator) external view returns (bool);\r\n\r\n    /**\r\n     * @dev Safely transfers `tokenId` token from `from` to `to`.\r\n     *\r\n     * Requirements:\r\n     *\r\n     * - `from` cannot be the zero address.\r\n     * - `to` cannot be the zero address.\r\n     * - `tokenId` token must exist and be owned by `from`.\r\n     * - If the caller is not `from`, it must be approved to move this token by either {approve} or {setApprovalForAll}.\r\n     * - If `to` refers to a smart contract, it must implement {IERC721Receiver-onERC721Received}, which is called upon a safe transfer.\r\n     *\r\n     * Emits a {Transfer} event.\r\n     */\r\n    function safeTransferFrom(\r\n        address from,\r\n        address to,\r\n        uint256 tokenId,\r\n        bytes calldata data\r\n    ) external;\r\n}\r\nabstract contract ERC165 is IERC165 {\r\n    /**\r\n     * @dev See {IERC165-supportsInterface}.\r\n     */\r\n    function supportsInterface(bytes4 interfaceId) public view virtual override returns (bool) {\r\n        return interfaceId == type(IERC165).interfaceId;\r\n    }\r\n}\r\nabstract contract Context {\r\n    function _msgSender() internal view virtual returns (address) {\r\n        return msg.sender;\r\n    }\r\n\r\n    function _msgData() internal view virtual returns (bytes calldata) {\r\n        return msg.data;\r\n    }\r\n}\r\n\r\n\r\nlibrary Strings {\r\n    bytes16 private constant _HEX_SYMBOLS = \"0123456789abcdef\";\r\n\r\n    /**\r\n     * @dev Converts a `uint256` to its ASCII `string` decimal representation.\r\n     */\r\n    function toString(uint256 value) internal pure returns (string memory) {\r\n        // Inspired by OraclizeAPI's implementation - MIT licence\r\n        // https://github.com/oraclize/ethereum-api/blob/b42146b063c7d6ee1358846c198246239e9360e8/oraclizeAPI_0.4.25.sol\r\n\r\n        if (value == 0) {\r\n            return \"0\";\r\n        }\r\n        uint256 temp = value;\r\n        uint256 digits;\r\n        while (temp != 0) {\r\n            digits++;\r\n            temp /= 10;\r\n        }\r\n        bytes memory buffer = new bytes(digits);\r\n        while (value != 0) {\r\n            digits -= 1;\r\n            buffer[digits] = bytes1(uint8(48 + uint256(value % 10)));\r\n            value /= 10;\r\n        }\r\n        return string(buffer);\r\n    }\r\n\r\n    /**\r\n     * @dev Converts a `uint256` to its ASCII `string` hexadecimal representation.\r\n     */\r\n    function toHexString(uint256 value) internal pure returns (string memory) {\r\n        if (value == 0) {\r\n            return \"0x00\";\r\n        }\r\n        uint256 temp = value;\r\n        uint256 length = 0;\r\n        while (temp != 0) {\r\n            length++;\r\n            temp >>= 8;\r\n        }\r\n        return toHexString(value, length);\r\n    }\r\n\r\n    /**\r\n     * @dev Converts a `uint256` to its ASCII `string` hexadecimal representation with fixed length.\r\n     */\r\n    function toHexString(uint256 value, uint256 length) internal pure returns (string memory) {\r\n        bytes memory buffer = new bytes(2 * length + 2);\r\n        buffer[0] = \"0\";\r\n        buffer[1] = \"x\";\r\n        for (uint256 i = 2 * length + 1; i > 1; --i) {\r\n            buffer[i] = _HEX_SYMBOLS[value & 0xf];\r\n            value >>= 4;\r\n        }\r\n        require(value == 0, \"Strings: hex length insufficient\");\r\n        return string(buffer);\r\n    }\r\n}\r\n\r\n\r\nlibrary Address {\r\n    /**\r\n     * @dev Returns true if `account` is a contract.\r\n     *\r\n     * [IMPORTANT]\r\n     * ====\r\n     * It is unsafe to assume that an address for which this function returns\r\n     * false is an externally-owned account (EOA) and not a contract.\r\n     *\r\n     * Among others, `isContract` will return false for the following\r\n     * types of addresses:\r\n     *\r\n     *  - an externally-owned account\r\n     *  - a contract in construction\r\n     *  - an address where a contract will be created\r\n     *  - an address where a contract lived, but was destroyed\r\n     * ====\r\n     */\r\n    function isContract(address account) internal view returns (bool) {\r\n        // This method relies on extcodesize, which returns 0 for contracts in\r\n        // construction, since the code is only stored at the end of the\r\n        // constructor execution.\r\n\r\n        uint256 size;\r\n        assembly {\r\n            size := extcodesize(account)\r\n        }\r\n        return size > 0;\r\n    }\r\n\r\n    /**\r\n     * @dev Replacement for Solidity's `transfer`: sends `amount` wei to\r\n     * `recipient`, forwarding all available gas and reverting on errors.\r\n     *\r\n     * https://eips.ethereum.org/EIPS/eip-1884[EIP1884] increases the gas cost\r\n     * of certain opcodes, possibly making contracts go over the 2300 gas limit\r\n     * imposed by `transfer`, making them unable to receive funds via\r\n     * `transfer`. {sendValue} removes this limitation.\r\n     *\r\n     * https://diligence.consensys.net/posts/2019/09/stop-using-soliditys-transfer-now/[Learn more].\r\n     *\r\n     * IMPORTANT: because control is transferred to `recipient`, care must be\r\n     * taken to not create reentrancy vulnerabilities. Consider using\r\n     * {ReentrancyGuard} or the\r\n     * https://solidity.readthedocs.io/en/v0.5.11/security-considerations.html#use-the-checks-effects-interactions-pattern[checks-effects-interactions pattern].\r\n     */\r\n    function sendValue(address payable recipient, uint256 amount) internal {\r\n        require(address(this).balance >= amount, \"Address: insufficient balance\");\r\n\r\n        (bool success, ) = recipient.call{value: amount}(\"\");\r\n        require(success, \"Address: unable to send value, recipient may have reverted\");\r\n    }\r\n\r\n    /**\r\n     * @dev Performs a Solidity function call using a low level `call`. A\r\n     * plain `call` is an unsafe replacement for a function call: use this\r\n     * function instead.\r\n     *\r\n     * If `target` reverts with a revert reason, it is bubbled up by this\r\n     * function (like regular Solidity function calls).\r\n     *\r\n     * Returns the raw returned data. To convert to the expected return value,\r\n     * use https://solidity.readthedocs.io/en/latest/units-and-global-variables.html?highlight=abi.decode#abi-encoding-and-decoding-functions[`abi.decode`].\r\n     *\r\n     * Requirements:\r\n     *\r\n     * - `target` must be a contract.\r\n     * - calling `target` with `data` must not revert.\r\n     *\r\n     * _Available since v3.1._\r\n     */\r\n    function functionCall(address target, bytes memory data) internal returns (bytes memory) {\r\n        return functionCall(target, data, \"Address: low-level call failed\");\r\n    }\r\n\r\n    /**\r\n     * @dev Same as {xref-Address-functionCall-address-bytes-}[`functionCall`], but with\r\n     * `errorMessage` as a fallback revert reason when `target` reverts.\r\n     *\r\n     * _Available since v3.1._\r\n     */\r\n    function functionCall(\r\n        address target,\r\n        bytes memory data,\r\n        string memory errorMessage\r\n    ) internal returns (bytes memory) {\r\n        return functionCallWithValue(target, data, 0, errorMessage);\r\n    }\r\n\r\n    /**\r\n     * @dev Same as {xref-Address-functionCall-address-bytes-}[`functionCall`],\r\n     * but also transferring `value` wei to `target`.\r\n     *\r\n     * Requirements:\r\n     *\r\n     * - the calling contract must have an ETH balance of at least `value`.\r\n     * - the called Solidity function must be `payable`.\r\n     *\r\n     * _Available since v3.1._\r\n     */\r\n    function functionCallWithValue(\r\n        address target,\r\n        bytes memory data,\r\n        uint256 value\r\n    ) internal returns (bytes memory) {\r\n        return functionCallWithValue(target, data, value, \"Address: low-level call with value failed\");\r\n    }\r\n\r\n    /**\r\n     * @dev Same as {xref-Address-functionCallWithValue-address-bytes-uint256-}[`functionCallWithValue`], but\r\n     * with `errorMessage` as a fallback revert reason when `target` reverts.\r\n     *\r\n     * _Available since v3.1._\r\n     */\r\n    function functionCallWithValue(\r\n        address target,\r\n        bytes memory data,\r\n        uint256 value,\r\n        string memory errorMessage\r\n    ) internal returns (bytes memory) {\r\n        require(address(this).balance >= value, \"Address: insufficient balance for call\");\r\n        require(isContract(target), \"Address: call to non-contract\");\r\n\r\n        (bool success, bytes memory returndata) = target.call{value: value}(data);\r\n        return verifyCallResult(success, returndata, errorMessage);\r\n    }\r\n\r\n    /**\r\n     * @dev Same as {xref-Address-functionCall-address-bytes-}[`functionCall`],\r\n     * but performing a static call.\r\n     *\r\n     * _Available since v3.3._\r\n     */\r\n    function functionStaticCall(address target, bytes memory data) internal view returns (bytes memory) {\r\n        return functionStaticCall(target, data, \"Address: low-level static call failed\");\r\n    }\r\n\r\n    /**\r\n     * @dev Same as {xref-Address-functionCall-address-bytes-string-}[`functionCall`],\r\n     * but performing a static call.\r\n     *\r\n     * _Available since v3.3._\r\n     */\r\n    function functionStaticCall(\r\n        address target,\r\n        bytes memory data,\r\n        string memory errorMessage\r\n    ) internal view returns (bytes memory) {\r\n        require(isContract(target), \"Address: static call to non-contract\");\r\n\r\n        (bool success, bytes memory returndata) = target.staticcall(data);\r\n        return verifyCallResult(success, returndata, errorMessage);\r\n    }\r\n\r\n    /**\r\n     * @dev Same as {xref-Address-functionCall-address-bytes-}[`functionCall`],\r\n     * but performing a delegate call.\r\n     *\r\n     * _Available since v3.4._\r\n     */\r\n    function functionDelegateCall(address target, bytes memory data) internal returns (bytes memory) {\r\n        return functionDelegateCall(target, data, \"Address: low-level delegate call failed\");\r\n    }\r\n\r\n    /**\r\n     * @dev Same as {xref-Address-functionCall-address-bytes-string-}[`functionCall`],\r\n     * but performing a delegate call.\r\n     *\r\n     * _Available since v3.4._\r\n     */\r\n    function functionDelegateCall(\r\n        address target,\r\n        bytes memory data,\r\n        string memory errorMessage\r\n    ) internal returns (bytes memory) {\r\n        require(isContract(target), \"Address: delegate call to non-contract\");\r\n\r\n        (bool success, bytes memory returndata) = target.delegatecall(data);\r\n        return verifyCallResult(success, returndata, errorMessage);\r\n    }\r\n\r\n    /**\r\n     * @dev Tool to verifies that a low level call was successful, and revert if it wasn't, either by bubbling the\r\n     * revert reason using the provided one.\r\n     *\r\n     * _Available since v4.3._\r\n     */\r\n    function verifyCallResult(\r\n        bool success,\r\n        bytes memory returndata,\r\n        string memory errorMessage\r\n    ) internal pure returns (bytes memory) {\r\n        if (success) {\r\n            return returndata;\r\n        } else {\r\n            // Look for revert reason and bubble it up if present\r\n            if (returndata.length > 0) {\r\n                // The easiest way to bubble the revert reason is using memory via assembly\r\n\r\n                assembly {\r\n                    let returndata_size := mload(returndata)\r\n                    revert(add(32, returndata), returndata_size)\r\n                }\r\n            } else {\r\n                revert(errorMessage);\r\n            }\r\n        }\r\n    }\r\n}\r\n\r\ninterface IERC721Metadata is IERC721 {\r\n    /**\r\n     * @dev Returns the token collection name.\r\n     */\r\n    function name() external view returns (string memory);\r\n\r\n    /**\r\n     * @dev Returns the token collection symbol.\r\n     */\r\n    function symbol() external view returns (string memory);\r\n\r\n    /**\r\n     * @dev Returns the Uniform Resource Identifier (URI) for `tokenId` token.\r\n     */\r\n    function tokenURI(uint256 tokenId) external view returns (string memory);\r\n}\r\n\r\ninterface IERC721Receiver {\r\n    /**\r\n     * @dev Whenever an {IERC721} `tokenId` token is transferred to this contract via {IERC721-safeTransferFrom}\r\n     * by `operator` from `from`, this function is called.\r\n     *\r\n     * It must return its Solidity selector to confirm the token transfer.\r\n     * If any other value is returned or the interface is not implemented by the recipient, the transfer will be reverted.\r\n     *\r\n     * The selector can be obtained in Solidity with `IERC721.onERC721Received.selector`.\r\n     */\r\n    function onERC721Received(\r\n        address operator,\r\n        address from,\r\n        uint256 tokenId,\r\n        bytes calldata data\r\n    ) external returns (bytes4);\r\n}\r\n\r\ncontract ERC721 is Context, ERC165, IERC721, IERC721Metadata {\r\n    using Address for address;\r\n    using Strings for uint256;\r\n\r\n    // Token name\r\n    string private _name;\r\n\r\n    // Token symbol\r\n    string private _symbol;\r\n\r\n    // Mapping from token ID to owner address\r\n    mapping(uint256 => address) private _owners;\r\n\r\n    // Mapping owner address to token count\r\n    mapping(address => uint256) private _balances;\r\n\r\n    // Mapping from token ID to approved address\r\n    mapping(uint256 => address) private _tokenApprovals;\r\n\r\n    // Mapping from owner to operator approvals\r\n    mapping(address => mapping(address => bool)) private _operatorApprovals;\r\n\r\n    /**\r\n     * @dev Initializes the contract by setting a `name` and a `symbol` to the token collection.\r\n     */\r\n    constructor(string memory name_, string memory symbol_) {\r\n        _name = name_;\r\n        _symbol = symbol_;\r\n    }\r\n\r\n    /**\r\n     * @dev See {IERC165-supportsInterface}.\r\n     */\r\n    function supportsInterface(bytes4 interfaceId) public view virtual override(IERC165, ERC165) returns (bool) {\r\n        return\r\n            interfaceId == type(IERC721).interfaceId ||\r\n            interfaceId == type(IERC721Metadata).interfaceId ||\r\n            super.supportsInterface(interfaceId);\r\n    }\r\n\r\n    /**\r\n     * @dev See {IERC721-balanceOf}.\r\n     */\r\n    function balanceOf(address owner) public view virtual override returns (uint256) {\r\n        require(owner != address(0), \"ERC721: balance query for the zero address\");\r\n        return _balances[owner];\r\n    }\r\n\r\n    /**\r\n     * @dev See {IERC721-ownerOf}.\r\n     */\r\n    function ownerOf(uint256 tokenId) public view virtual override returns (address) {\r\n        address owner = _owners[tokenId];\r\n        require(owner != address(0), \"ERC721: owner query for nonexistent token\");\r\n        return owner;\r\n    }\r\n\r\n    /**\r\n     * @dev See {IERC721Metadata-name}.\r\n     */\r\n    function name() public view virtual override returns (string memory) {\r\n        return _name;\r\n    }\r\n\r\n    /**\r\n     * @dev See {IERC721Metadata-symbol}.\r\n     */\r\n    function symbol() public view virtual override returns (string memory) {\r\n        return _symbol;\r\n    }\r\n\r\n    /**\r\n     * @dev See {IERC721Metadata-tokenURI}.\r\n     */\r\n    function tokenURI(uint256 tokenId) public view virtual override returns (string memory) {\r\n        require(_exists(tokenId), \"ERC721Metadata: URI query for nonexistent token\");\r\n\r\n        string memory baseURI = _baseURI();\r\n        return bytes(baseURI).length > 0 ? string(abi.encodePacked(baseURI, tokenId.toString())) : \"\";\r\n    }\r\n\r\n    /**\r\n     * @dev Base URI for computing {tokenURI}. If set, the resulting URI for each\r\n     * token will be the concatenation of the `baseURI` and the `tokenId`. Empty\r\n     * by default, can be overriden in child contracts.\r\n     */\r\n    function _baseURI() internal view virtual returns (string memory) {\r\n        return \"\";\r\n    }\r\n\r\n    /**\r\n     * @dev See {IERC721-approve}.\r\n     */\r\n    function approve(address to, uint256 tokenId) public virtual override {\r\n        address owner = ownerOf(tokenId);\r\n        require(to != owner, \"ERC721: approval to current owner\");\r\n\r\n        require(\r\n            _msgSender() == owner || isApprovedForAll(owner, _msgSender()),\r\n            \"ERC721: approve caller is not owner nor approved for all\"\r\n        );\r\n\r\n        _approve(to, tokenId);\r\n    }\r\n\r\n    /**\r\n     * @dev See {IERC721-getApproved}.\r\n     */\r\n    function getApproved(uint256 tokenId) public view virtual override returns (address) {\r\n        require(_exists(tokenId), \"ERC721: approved query for nonexistent token\");\r\n\r\n        return _tokenApprovals[tokenId];\r\n    }\r\n\r\n    /**\r\n     * @dev See {IERC721-setApprovalForAll}.\r\n     */\r\n    function setApprovalForAll(address operator, bool approved) public virtual override {\r\n        require(operator != _msgSender(), \"ERC721: approve to caller\");\r\n\r\n        _operatorApprovals[_msgSender()][operator] = approved;\r\n        emit ApprovalForAll(_msgSender(), operator, approved);\r\n    }\r\n\r\n    /**\r\n     * @dev See {IERC721-isApprovedForAll}.\r\n     */\r\n    function isApprovedForAll(address owner, address operator) public view virtual override returns (bool) {\r\n        return _operatorApprovals[owner][operator];\r\n    }\r\n\r\n    /**\r\n     * @dev See {IERC721-transferFrom}.\r\n     */\r\n    function transferFrom(\r\n        address from,\r\n        address to,\r\n        uint256 tokenId\r\n    ) public virtual override {\r\n        //solhint-disable-next-line max-line-length\r\n        require(_isApprovedOrOwner(_msgSender(), tokenId), \"ERC721: transfer caller is not owner nor approved\");\r\n\r\n        _transfer(from, to, tokenId);\r\n    }\r\n\r\n    /**\r\n     * @dev See {IERC721-safeTransferFrom}.\r\n     */\r\n    function safeTransferFrom(\r\n        address from,\r\n        address to,\r\n        uint256 tokenId\r\n    ) public virtual override {\r\n        safeTransferFrom(from, to, tokenId, \"\");\r\n    }\r\n\r\n    /**\r\n     * @dev See {IERC721-safeTransferFrom}.\r\n     */\r\n    function safeTransferFrom(\r\n        address from,\r\n        address to,\r\n        uint256 tokenId,\r\n        bytes memory _data\r\n    ) public virtual override {\r\n        require(_isApprovedOrOwner(_msgSender(), tokenId), \"ERC721: transfer caller is not owner nor approved\");\r\n        _safeTransfer(from, to, tokenId, _data);\r\n    }\r\n\r\n    /**\r\n     * @dev Safely transfers `tokenId` token from `from` to `to`, checking first that contract recipients\r\n     * are aware of the ERC721 protocol to prevent tokens from being forever locked.\r\n     *\r\n     * `_data` is additional data, it has no specified format and it is sent in call to `to`.\r\n     *\r\n     * This internal function is equivalent to {safeTransferFrom}, and can be used to e.g.\r\n     * implement alternative mechanisms to perform token transfer, such as signature-based.\r\n     *\r\n     * Requirements:\r\n     *\r\n     * - `from` cannot be the zero address.\r\n     * - `to` cannot be the zero address.\r\n     * - `tokenId` token must exist and be owned by `from`.\r\n     * - If `to` refers to a smart contract, it must implement {IERC721Receiver-onERC721Received}, which is called upon a safe transfer.\r\n     *\r\n     * Emits a {Transfer} event.\r\n     */\r\n    function _safeTransfer(\r\n        address from,\r\n        address to,\r\n        uint256 tokenId,\r\n        bytes memory _data\r\n    ) internal virtual {\r\n        _transfer(from, to, tokenId);\r\n        require(_checkOnERC721Received(from, to, tokenId, _data), \"ERC721: transfer to non ERC721Receiver implementer\");\r\n    }\r\n\r\n    /**\r\n     * @dev Returns whether `tokenId` exists.\r\n     *\r\n     * Tokens can be managed by their owner or approved accounts via {approve} or {setApprovalForAll}.\r\n     *\r\n     * Tokens start existing when they are minted (`_mint`),\r\n     * and stop existing when they are burned (`_burn`).\r\n     */\r\n    function _exists(uint256 tokenId) internal view virtual returns (bool) {\r\n        return _owners[tokenId] != address(0);\r\n    }\r\n\r\n    /**\r\n     * @dev Returns whether `spender` is allowed to manage `tokenId`.\r\n     *\r\n     * Requirements:\r\n     *\r\n     * - `tokenId` must exist.\r\n     */\r\n    function _isApprovedOrOwner(address spender, uint256 tokenId) internal view virtual returns (bool) {\r\n        require(_exists(tokenId), \"ERC721: operator query for nonexistent token\");\r\n        address owner = ERC721.ownerOf(tokenId);\r\n        return (spender == owner || getApproved(tokenId) == spender || isApprovedForAll(owner, spender));\r\n    }\r\n\r\n    /**\r\n     * @dev Safely mints `tokenId` and transfers it to `to`.\r\n     *\r\n     * Requirements:\r\n     *\r\n     * - `tokenId` must not exist.\r\n     * - If `to` refers to a smart contract, it must implement {IERC721Receiver-onERC721Received}, which is called upon a safe transfer.\r\n     *\r\n     * Emits a {Transfer} event.\r\n     */\r\n    function _safeMint(address to, uint256 tokenId) internal virtual {\r\n        _safeMint(to, tokenId, \"\");\r\n    }\r\n\r\n    /**\r\n     * @dev Same as {xref-ERC721-_safeMint-address-uint256-}[`_safeMint`], with an additional `data` parameter which is\r\n     * forwarded in {IERC721Receiver-onERC721Received} to contract recipients.\r\n     */\r\n    function _safeMint(\r\n        address to,\r\n        uint256 tokenId,\r\n        bytes memory _data\r\n    ) internal virtual {\r\n        _mint(to, tokenId);\r\n        require(\r\n            _checkOnERC721Received(address(0), to, tokenId, _data),\r\n            \"ERC721: transfer to non ERC721Receiver implementer\"\r\n        );\r\n    }\r\n\r\n    /**\r\n     * @dev Mints `tokenId` and transfers it to `to`.\r\n     *\r\n     * WARNING: Usage of this method is discouraged, use {_safeMint} whenever possible\r\n     *\r\n     * Requirements:\r\n     *\r\n     * - `tokenId` must not exist.\r\n     * - `to` cannot be the zero address.\r\n     *\r\n     * Emits a {Transfer} event.\r\n     */\r\n    function _mint(address to, uint256 tokenId) internal virtual {\r\n        require(to != address(0), \"ERC721: mint to the zero address\");\r\n        require(!_exists(tokenId), \"ERC721: token already minted\");\r\n\r\n        _beforeTokenTransfer(address(0), to, tokenId);\r\n\r\n        _balances[to] += 1;\r\n        _owners[tokenId] = to;\r\n\r\n        emit Transfer(address(0), to, tokenId);\r\n    }\r\n\r\n    /**\r\n     * @dev Destroys `tokenId`.\r\n     * The approval is cleared when the token is burned.\r\n     *\r\n     * Requirements:\r\n     *\r\n     * - `tokenId` must exist.\r\n     *\r\n     * Emits a {Transfer} event.\r\n     */\r\n    function _burn(uint256 tokenId) internal virtual {\r\n        address owner = ERC721.ownerOf(tokenId);\r\n\r\n        _beforeTokenTransfer(owner, address(0), tokenId);\r\n\r\n        // Clear approvals\r\n        _approve(address(0), tokenId);\r\n\r\n        _balances[owner] -= 1;\r\n        delete _owners[tokenId];\r\n\r\n        emit Transfer(owner, address(0), tokenId);\r\n    }\r\n\r\n    /**\r\n     * @dev Transfers `tokenId` from `from` to `to`.\r\n     *  As opposed to {transferFrom}, this imposes no restrictions on msg.sender.\r\n     *\r\n     * Requirements:\r\n     *\r\n     * - `to` cannot be the zero address.\r\n     * - `tokenId` token must be owned by `from`.\r\n     *\r\n     * Emits a {Transfer} event.\r\n     */\r\n    function _transfer(\r\n        address from,\r\n        address to,\r\n        uint256 tokenId\r\n    ) internal virtual {\r\n        require(ERC721.ownerOf(tokenId) == from, \"ERC721: transfer of token that is not own\");\r\n        require(to != address(0), \"ERC721: transfer to the zero address\");\r\n\r\n        _beforeTokenTransfer(from, to, tokenId);\r\n\r\n        // Clear approvals from the previous owner\r\n        _approve(address(0), tokenId);\r\n\r\n        _balances[from] -= 1;\r\n        _balances[to] += 1;\r\n        _owners[tokenId] = to;\r\n\r\n        emit Transfer(from, to, tokenId);\r\n    }\r\n\r\n    /**\r\n     * @dev Approve `to` to operate on `tokenId`\r\n     *\r\n     * Emits a {Approval} event.\r\n     */\r\n    function _approve(address to, uint256 tokenId) internal virtual {\r\n        _tokenApprovals[tokenId] = to;\r\n        emit Approval(ERC721.ownerOf(tokenId), to, tokenId);\r\n    }\r\n\r\n    /**\r\n     * @dev Internal function to invoke {IERC721Receiver-onERC721Received} on a target address.\r\n     * The call is not executed if the target address is not a contract.\r\n     *\r\n     * @param from address representing the previous owner of the given token ID\r\n     * @param to target address that will receive the tokens\r\n     * @param tokenId uint256 ID of the token to be transferred\r\n     * @param _data bytes optional data to send along with the call\r\n     * @return bool whether the call correctly returned the expected magic value\r\n     */\r\n    function _checkOnERC721Received(\r\n        address from,\r\n        address to,\r\n        uint256 tokenId,\r\n        bytes memory _data\r\n    ) private returns (bool) {\r\n        if (to.isContract()) {\r\n            try IERC721Receiver(to).onERC721Received(_msgSender(), from, tokenId, _data) returns (bytes4 retval) {\r\n                return retval == IERC721Receiver.onERC721Received.selector;\r\n            } catch (bytes memory reason) {\r\n                if (reason.length == 0) {\r\n                    revert(\"ERC721: transfer to non ERC721Receiver implementer\");\r\n                } else {\r\n                    assembly {\r\n                        revert(add(32, reason), mload(reason))\r\n                    }\r\n                }\r\n            }\r\n        } else {\r\n            return true;\r\n        }\r\n    }\r\n\r\n    /**\r\n     * @dev Hook that is called before any token transfer. This includes minting\r\n     * and burning.\r\n     *\r\n     * Calling conditions:\r\n     *\r\n     * - When `from` and `to` are both non-zero, ``from``'s `tokenId` will be\r\n     * transferred to `to`.\r\n     * - When `from` is zero, `tokenId` will be minted for `to`.\r\n     * - When `to` is zero, ``from``'s `tokenId` will be burned.\r\n     * - `from` and `to` are never both zero.\r\n     *\r\n     * To learn more about hooks, head to xref:ROOT:extending-contracts.adoc#using-hooks[Using Hooks].\r\n     */\r\n    function _beforeTokenTransfer(\r\n        address from,\r\n        address to,\r\n        uint256 tokenId\r\n    ) internal virtual {\r\n    }\r\n}\r\n\r\npragma solidity ^0.8.0;\r\n\r\n/**\r\n * @dev Standard math utilities missing in the Solidity language.\r\n */\r\nlibrary Math {\r\n    /**\r\n     * @dev Returns the largest of two numbers.\r\n     */\r\n    function max(uint256 a, uint256 b) internal pure returns (uint256) {\r\n        return a >= b ? a : b;\r\n    }\r\n\r\n    /**\r\n     * @dev Returns the smallest of two numbers.\r\n     */\r\n    function min(uint256 a, uint256 b) internal pure returns (uint256) {\r\n        return a < b ? a : b;\r\n    }\r\n\r\n    /**\r\n     * @dev Returns the average of two numbers. The result is rounded towards\r\n     * zero.\r\n     */\r\n    function average(uint256 a, uint256 b) internal pure returns (uint256) {\r\n        // (a + b) / 2 can overflow.\r\n        return (a & b) + (a ^ b) / 2;\r\n    }\r\n\r\n    /**\r\n     * @dev Returns the ceiling of the division of two numbers.\r\n     *\r\n     * This differs from standard division with `/` in that it rounds up instead\r\n     * of rounding down.\r\n     */\r\n    function ceilDiv(uint256 a, uint256 b) internal pure returns (uint256) {\r\n        // (a + b - 1) / b can overflow on addition, so we distribute.\r\n        return a / b + (a % b == 0 ? 0 : 1);\r\n    }\r\n}\r\nabstract contract ERC721URIStorage is ERC721 {\r\n    using Strings for uint256;\r\n\r\n    // Optional mapping for token URIs\r\n    mapping(uint256 => string) private _tokenURIs;\r\n\r\n    /**\r\n     * @dev See {IERC721Metadata-tokenURI}.\r\n     */\r\n    function tokenURI(uint256 tokenId) public view virtual override returns (string memory) {\r\n        require(_exists(tokenId), \"ERC721URIStorage: URI query for nonexistent token\");\r\n\r\n        string memory _tokenURI = _tokenURIs[tokenId];\r\n        string memory base = _baseURI();\r\n\r\n        // If there is no base URI, return the token URI.\r\n        if (bytes(base).length == 0) {\r\n            return _tokenURI;\r\n        }\r\n        // If both are set, concatenate the baseURI and tokenURI (via abi.encodePacked).\r\n        if (bytes(_tokenURI).length > 0) {\r\n            return string(abi.encodePacked(base, _tokenURI));\r\n        }\r\n\r\n        return super.tokenURI(tokenId);\r\n    }\r\n\r\n    /**\r\n     * @dev Sets `_tokenURI` as the tokenURI of `tokenId`.\r\n     *\r\n     * Requirements:\r\n     *\r\n     * - `tokenId` must exist.\r\n     */\r\n    function _setTokenURI(uint256 tokenId, string memory _tokenURI) internal virtual {\r\n        require(_exists(tokenId), \"ERC721URIStorage: URI set of nonexistent token\");\r\n        _tokenURIs[tokenId] = _tokenURI;\r\n    }\r\n\r\n    /**\r\n     * @dev Destroys `tokenId`.\r\n     * The approval is cleared when the token is burned.\r\n     *\r\n     * Requirements:\r\n     *\r\n     * - `tokenId` must exist.\r\n     *\r\n     * Emits a {Transfer} event.\r\n     */\r\n    function _burn(uint256 tokenId) internal virtual override {\r\n        super._burn(tokenId);\r\n\r\n        if (bytes(_tokenURIs[tokenId]).length != 0) {\r\n            delete _tokenURIs[tokenId];\r\n        }\r\n    }\r\n}\r\n\r\n\r\n\r\n// SPDX-License-Identifier: MIT\r\npragma solidity ^0.8.20;\r\n\r\n// import \"@openzeppelin/contracts/token/ERC721/extensions/ERC721URIStorage.sol\";\r\n// import \"@openzeppelin/contracts/utils/math/Math.sol\";\r\nimport \"@openzeppelin/contracts/utils/ReentrancyGuard.sol\";\r\n\r\ncontract NFTAuction is ERC721URIStorage, ReentrancyGuard {\r\n\r\n    using Math for uint256;\r\n\r\n    struct ArtItem {\r\n        address payable seller;\r\n        uint256 minbid;\r\n        string tokenURI;\r\n        bool exists;\r\n        uint bidIncrement;\r\n        uint256 startDate;\r\n        uint256 endDate;\r\n    }\r\n\r\n    struct Bidding {\r\n        uint highestBindingBid;\r\n        address payable highestBidder;\r\n    }\r\n\r\n    mapping (uint256 => ArtItem) private _artItems;\r\n    uint256 public _tokenIds;\r\n    uint256 public _artItemIds;\r\n    bool public canceled;\r\n\r\n    mapping (uint256 => mapping (address => uint256)) public fundsByBidder;\r\n    mapping (uint256 => Bidding) public bid;\r\n\r\n    bool auctionstarted = false;\r\n    bool firsttime = true;\r\n\r\n    event LogBid(address indexed Bidder, uint256 bid, address indexed highestBidder, uint256 highestBid, uint256 highestBindingBid);\r\n    event LogWithdrawal(address indexed withdrawalAccount, uint256 amount);\r\n    event LogCanceled();\r\n    event LogEndAuction(address highestBidder, uint256 highestBid);\r\n\r\n    constructor() ERC721(\"AuctionART\", \"ART\") \r\n    {}\r\n\r\n    modifier artItemExists(uint256 id) {\r\n        require(_artItems[id].exists, \"Not Found\");\r\n        _;\r\n    }\r\n\r\n    modifier onlyNotOwner(uint256 id) {\r\n        require(msg.sender != _artItems[id].seller, \"Owner cannot bid\");\r\n        _;\r\n    }\r\n\r\n    modifier onlyNotCanceled() {\r\n        require(!canceled, \"Auction canceled\");\r\n        _;\r\n    }\r\n\r\n    modifier onlyOwner(uint256 id) {\r\n        require(msg.sender == _artItems[id].seller, \"Only owner can call this\");\r\n        _;\r\n    }\r\n\r\n    modifier overMinBid(uint256 id) {\r\n        require(msg.value >= _artItems[id].minbid, \"Bid below minimum\");\r\n        _;\r\n    }\r\n\r\n    modifier auctionActive(uint256 id) {\r\n        require(block.timestamp >= _artItems[id].startDate, \"Auction has not started yet\");\r\n        require(block.timestamp <= _artItems[id].endDate, \"Auction has already ended\");\r\n        _;\r\n    }\r\n\r\n    function addArtItem(uint256 price, string memory tokenURI, uint _bidincrement, uint256 startDate, uint256 endDate) public {\r\n        require(price >= 0, \"Price cannot be less than 0\");\r\n        require(startDate < endDate, \"Start date must be before end date\");\r\n        require(endDate > block.timestamp, \"End date must be in the future\");\r\n\r\n        _artItemIds++;\r\n        _artItems[_artItemIds] = ArtItem(payable(msg.sender), price, tokenURI, true, _bidincrement, startDate, endDate);\r\n        firsttime = true;  // Reset firsttime for the new item\r\n    }\r\n\r\n    function getArtItem(uint256 id) \r\n        public \r\n        view \r\n        artItemExists(id) \r\n        returns (\r\n            uint256,\r\n            uint256,\r\n            string memory,\r\n            uint256,\r\n            uint256,\r\n            uint256\r\n        ) \r\n    {\r\n        ArtItem storage artItem = _artItems[id];\r\n        Bidding storage bd = bid[id];\r\n        return (id, artItem.minbid, artItem.tokenURI, bd.highestBindingBid, artItem.startDate, artItem.endDate);\r\n    }\r\n\r\n    function extendEndDate(uint256 id, uint256 newEndDate) public onlyOwner(id) {\r\n        require(newEndDate > _artItems[id].endDate, \"New end date must be later than current end date\");\r\n        _artItems[id].endDate = newEndDate;\r\n    }\r\n\r\n    function cancelAuction(uint256 id) \r\n        public \r\n        payable \r\n        onlyOwner(id) \r\n        onlyNotCanceled() \r\n        returns (bool success) \r\n    {\r\n        canceled = true;\r\n        if (auctionstarted == true) {\r\n            ArtItem memory artItem = _artItems[id];\r\n            Bidding storage bd = bid[id];\r\n            _tokenIds++;\r\n            _safeMint(msg.sender, _tokenIds);\r\n            _setTokenURI(_tokenIds, artItem.tokenURI);\r\n            \r\n            require(bd.highestBindingBid != 0, \"No bids placed\");\r\n            fundsByBidder[id][bd.highestBidder] -= bd.highestBindingBid;\r\n            payable(msg.sender).transfer(bd.highestBindingBid);\r\n        }\r\n        emit LogCanceled();\r\n        return true;\r\n    }\r\n\r\n    function placeBid(uint256 id) \r\n        public \r\n        payable \r\n        onlyNotCanceled \r\n        onlyNotOwner(id) \r\n        overMinBid(id)\r\n        auctionActive(id)\r\n        nonReentrant \r\n    {\r\n        require(msg.value > 0, \"Bid value must be greater than 0\");\r\n        Bidding storage bd = bid[id];\r\n        auctionstarted = true;\r\n        ArtItem memory artItem = _artItems[id];\r\n\r\n        uint newBid = fundsByBidder[id][msg.sender] + msg.value;\r\n        require(newBid > bd.highestBindingBid, \"There already is a higher or equal bid\");\r\n\r\n        uint highestBid = fundsByBidder[id][bd.highestBidder];\r\n        fundsByBidder[id][msg.sender] = newBid;\r\n\r\n        if (newBid <= highestBid) {\r\n            bd.highestBindingBid = highestBid.min(newBid + artItem.bidIncrement);\r\n        } else {\r\n            if (msg.sender != bd.highestBidder) {\r\n                bd.highestBindingBid = newBid.min(highestBid + artItem.bidIncrement);\r\n                bd.highestBidder = payable(msg.sender);\r\n                if (firsttime) { \r\n                    bd.highestBindingBid = artItem.minbid + artItem.bidIncrement;\r\n                    firsttime = false;\r\n                }\r\n            }\r\n        }\r\n        emit LogBid(msg.sender, newBid, bd.highestBidder, highestBid, bd.highestBindingBid);\r\n    }\r\n\r\n    function withdraw(uint256 id) \r\n        public \r\n        payable \r\n        onlyNotOwner(id) \r\n        nonReentrant \r\n    {\r\n        require(canceled == true, \"Auction not canceled\");\r\n        require(auctionstarted == true, \"Auction not started\");\r\n\r\n        address payable withdrawalAccount = payable(msg.sender);\r\n        uint withdrawalAmount = fundsByBidder[id][withdrawalAccount];\r\n        \r\n        Bidding storage bd = bid[id];\r\n        if (msg.sender == bd.highestBidder) {\r\n            withdrawalAmount -= bd.highestBindingBid;\r\n        }\r\n\r\n        fundsByBidder[id][withdrawalAccount] -= withdrawalAmount;\r\n        withdrawalAccount.transfer(withdrawalAmount);\r\n\r\n        emit LogWithdrawal(withdrawalAccount, withdrawalAmount);\r\n    }\r\n\r\n    function endAuction(uint256 id) public artItemExists(id) {\r\n        ArtItem storage artItem = _artItems[id];\r\n        Bidding storage bd = bid[id];\r\n        require(block.timestamp > artItem.endDate, \"Auction not yet ended\");\r\n        require(!canceled, \"Auction canceled\");\r\n\r\n        if (bd.highestBidder != address(0)) {\r\n            _tokenIds++;\r\n            _safeMint(bd.highestBidder, _tokenIds);\r\n            _setTokenURI(_tokenIds, artItem.tokenURI);\r\n            artItem.seller.transfer(bd.highestBindingBid);\r\n            fundsByBidder[id][bd.highestBidder] = 0;\r\n\r\n            emit LogEndAuction(bd.highestBidder, bd.highestBindingBid);\r\n        }\r\n    }\r\n}\r\n\r\n\r\n\r\n",
  "sourcePath": "F:\\soldity\\GitHub\\NFTAuction\\contracts\\NFTAuction.sol",
  "compiler": {
    "name": "solc",
    "version": "0.8.20+commit.a1b79de6.Emscripten.clang"
  },
  "schemaVersion": "3.4.16",
  "updatedAt": "2024-07-24T11:43:49.232Z",
  "networkType": "ethereum",
  "devdoc": {
    "errors": {
      "ReentrancyGuardReentrantCall()": [
        {
          "details": "Unauthorized reentrant call."
        }
      ]
    },
    "events": {
      "Approval(address,address,uint256)": {
        "details": "Emitted when `owner` enables `approved` to manage the `tokenId` token."
      },
      "ApprovalForAll(address,address,bool)": {
        "details": "Emitted when `owner` enables or disables (`approved`) `operator` to manage all of its assets."
      },
      "Transfer(address,address,uint256)": {
        "details": "Emitted when `tokenId` token is transferred from `from` to `to`."
      }
    },
    "kind": "dev",
    "methods": {
      "approve(address,uint256)": {
        "details": "See {IERC721-approve}."
      },
      "balanceOf(address)": {
        "details": "See {IERC721-balanceOf}."
      },
      "getApproved(uint256)": {
        "details": "See {IERC721-getApproved}."
      },
      "isApprovedForAll(address,address)": {
        "details": "See {IERC721-isApprovedForAll}."
      },
      "name()": {
        "details": "See {IERC721Metadata-name}."
      },
      "ownerOf(uint256)": {
        "details": "See {IERC721-ownerOf}."
      },
      "safeTransferFrom(address,address,uint256)": {
        "details": "See {IERC721-safeTransferFrom}."
      },
      "safeTransferFrom(address,address,uint256,bytes)": {
        "details": "See {IERC721-safeTransferFrom}."
      },
      "setApprovalForAll(address,bool)": {
        "details": "See {IERC721-setApprovalForAll}."
      },
      "supportsInterface(bytes4)": {
        "details": "See {IERC165-supportsInterface}."
      },
      "symbol()": {
        "details": "See {IERC721Metadata-symbol}."
      },
      "tokenURI(uint256)": {
        "details": "See {IERC721Metadata-tokenURI}."
      },
      "transferFrom(address,address,uint256)": {
        "details": "See {IERC721-transferFrom}."
      }
    },
    "version": 1
  },
  "userdoc": {
    "kind": "user",
    "methods": {},
    "version": 1
  }
}